{"abi":[{"type":"function","name":"getAllMatches","inputs":[],"outputs":[{"name":"","type":"tuple[]","internalType":"struct SkillSwap.Match[]","components":[{"name":"matchId","type":"uint256","internalType":"uint256"},{"name":"user1Id","type":"uint256","internalType":"uint256"},{"name":"user2Id","type":"uint256","internalType":"uint256"},{"name":"timestamp","type":"uint256","internalType":"uint256"}]}],"stateMutability":"view"},{"type":"function","name":"getAllUsers","inputs":[],"outputs":[{"name":"","type":"tuple[]","internalType":"struct SkillSwap.User[]","components":[{"name":"id","type":"uint256","internalType":"uint256"},{"name":"wallet","type":"address","internalType":"address"},{"name":"name","type":"string","internalType":"string"},{"name":"skillToTeach","type":"string","internalType":"string"},{"name":"skillToLearn","type":"string","internalType":"string"}]}],"stateMutability":"view"},{"type":"function","name":"matchCount","inputs":[],"outputs":[{"name":"","type":"uint256","internalType":"uint256"}],"stateMutability":"view"},{"type":"function","name":"matchUsers","inputs":[{"name":"_user1Id","type":"uint256","internalType":"uint256"},{"name":"_user2Id","type":"uint256","internalType":"uint256"}],"outputs":[],"stateMutability":"nonpayable"},{"type":"function","name":"matches","inputs":[{"name":"","type":"uint256","internalType":"uint256"}],"outputs":[{"name":"matchId","type":"uint256","internalType":"uint256"},{"name":"user1Id","type":"uint256","internalType":"uint256"},{"name":"user2Id","type":"uint256","internalType":"uint256"},{"name":"timestamp","type":"uint256","internalType":"uint256"}],"stateMutability":"view"},{"type":"function","name":"registerUser","inputs":[{"name":"_name","type":"string","internalType":"string"},{"name":"_skillToTeach","type":"string","internalType":"string"},{"name":"_skillToLearn","type":"string","internalType":"string"}],"outputs":[],"stateMutability":"nonpayable"},{"type":"function","name":"registered","inputs":[{"name":"","type":"address","internalType":"address"}],"outputs":[{"name":"","type":"bool","internalType":"bool"}],"stateMutability":"view"},{"type":"function","name":"userCount","inputs":[],"outputs":[{"name":"","type":"uint256","internalType":"uint256"}],"stateMutability":"view"},{"type":"function","name":"users","inputs":[{"name":"","type":"uint256","internalType":"uint256"}],"outputs":[{"name":"id","type":"uint256","internalType":"uint256"},{"name":"wallet","type":"address","internalType":"address"},{"name":"name","type":"string","internalType":"string"},{"name":"skillToTeach","type":"string","internalType":"string"},{"name":"skillToLearn","type":"string","internalType":"string"}],"stateMutability":"view"},{"type":"event","name":"UserRegistered","inputs":[{"name":"id","type":"uint256","indexed":false,"internalType":"uint256"},{"name":"wallet","type":"address","indexed":false,"internalType":"address"},{"name":"name","type":"string","indexed":false,"internalType":"string"},{"name":"skillToTeach","type":"string","indexed":false,"internalType":"string"},{"name":"skillToLearn","type":"string","indexed":false,"internalType":"string"}],"anonymous":false},{"type":"event","name":"UsersMatched","inputs":[{"name":"matchId","type":"uint256","indexed":false,"internalType":"uint256"},{"name":"user1Id","type":"uint256","indexed":false,"internalType":"uint256"},{"name":"user2Id","type":"uint256","indexed":false,"internalType":"uint256"}],"anonymous":false}],"bytecode":{"object":"0x608060405234801561000f575f80fd5b50611b718061001d5f395ff3fe608060405234801561000f575f80fd5b5060043610610091575f3560e01c8063b2dd5c0711610064578063b2dd5c0714610138578063c17c5a4514610168578063d637dcfa14610186578063ddf7adac146101a2578063e2842d79146101be57610091565b806307973ccf14610095578063365b98b2146100b35780634768d4ef146100e757806379c4264b1461011a575b5f80fd5b61009d6101dc565b6040516100aa9190610e5a565b60405180910390f35b6100cd60048036038101906100c89190610ea5565b6101e1565b6040516100de959493929190610f99565b60405180910390f35b61010160048036038101906100fc9190610ea5565b6103c4565b6040516101119493929190610fff565b60405180910390f35b6101226103f0565b60405161012f9190610e5a565b60405180910390f35b610152600480360381019061014d919061106c565b6103f6565b60405161015f91906110b1565b60405180910390f35b610170610413565b60405161017d91906111d4565b60405180910390f35b6101a0600480360381019061019b9190611255565b610505565b005b6101bc60048036038101906101b79190611305565b6107f4565b005b6101c6610b04565b6040516101d391906114d6565b60405180910390f35b5f5481565b6002602052805f5260405f205f91509050805f015490806001015f9054906101000a900473ffffffffffffffffffffffffffffffffffffffff169080600201805461022b90611523565b80601f016020809104026020016040519081016040528092919081815260200182805461025790611523565b80156102a25780601f10610279576101008083540402835291602001916102a2565b820191905f5260205f20905b81548152906001019060200180831161028557829003601f168201915b5050505050908060030180546102b790611523565b80601f01602080910402602001604051908101604052809291908181526020018280546102e390611523565b801561032e5780601f106103055761010080835404028352916020019161032e565b820191905f5260205f20905b81548152906001019060200180831161031157829003601f168201915b50505050509080600401805461034390611523565b80601f016020809104026020016040519081016040528092919081815260200182805461036f90611523565b80156103ba5780601f10610391576101008083540402835291602001916103ba565b820191905f5260205f20905b81548152906001019060200180831161039d57829003601f168201915b5050505050905085565b6003602052805f5260405f205f91509050805f0154908060010154908060020154908060030154905084565b60015481565b6004602052805f5260405f205f915054906101000a900460ff1681565b60605f60015467ffffffffffffffff81111561043257610431611553565b5b60405190808252806020026020018201604052801561046b57816020015b610458610ddb565b8152602001906001900390816104505790505b5090505f600190505b60015481116104fd5760035f8281526020019081526020015f206040518060800160405290815f82015481526020016001820154815260200160028201548152602001600382015481525050826001836104ce91906115ad565b815181106104df576104de6115e0565b5b602002602001018190525080806104f59061160d565b915050610474565b508091505090565b60045f3373ffffffffffffffffffffffffffffffffffffffff1673ffffffffffffffffffffffffffffffffffffffff1681526020019081526020015f205f9054906101000a900460ff161561058f576040517f08c379a00000000000000000000000000000000000000000000000000000000081526004016105869061169e565b60405180910390fd5b5f808154809291906105a09061160d565b91905055506040518060a001604052805f5481526020013373ffffffffffffffffffffffffffffffffffffffff16815260200187878080601f0160208091040260200160405190810160405280939291908181526020018383808284375f81840152601f19601f82011690508083019250505050505050815260200185858080601f0160208091040260200160405190810160405280939291908181526020018383808284375f81840152601f19601f82011690508083019250505050505050815260200183838080601f0160208091040260200160405190810160405280939291908181526020018383808284375f81840152601f19601f8201169050808301925050505050505081525060025f805481526020019081526020015f205f820151815f01556020820151816001015f6101000a81548173ffffffffffffffffffffffffffffffffffffffff021916908373ffffffffffffffffffffffffffffffffffffffff16021790555060408201518160020190816107219190611859565b5060608201518160030190816107379190611859565b50608082015181600401908161074d9190611859565b50905050600160045f3373ffffffffffffffffffffffffffffffffffffffff1673ffffffffffffffffffffffffffffffffffffffff1681526020019081526020015f205f6101000a81548160ff0219169083151502179055507f7959fc533d84328398ac0ebc97341251d124bb33ba34b1e6e0b918f59d5a4c6e5f54338888888888886040516107e4989796959493929190611962565b60405180910390a1505050505050565b808203610836576040517f08c379a000000000000000000000000000000000000000000000000000000000815260040161082d90611a18565b60405180910390fd5b5f73ffffffffffffffffffffffffffffffffffffffff1660025f8481526020019081526020015f206001015f9054906101000a900473ffffffffffffffffffffffffffffffffffffffff1673ffffffffffffffffffffffffffffffffffffffff161415801561090457505f73ffffffffffffffffffffffffffffffffffffffff1660025f8381526020019081526020015f206001015f9054906101000a900473ffffffffffffffffffffffffffffffffffffffff1673ffffffffffffffffffffffffffffffffffffffff1614155b610943576040517f08c379a000000000000000000000000000000000000000000000000000000000815260040161093a90611a80565b60405180910390fd5b60025f8381526020019081526020015f206001015f9054906101000a900473ffffffffffffffffffffffffffffffffffffffff1673ffffffffffffffffffffffffffffffffffffffff163373ffffffffffffffffffffffffffffffffffffffff161480610a0e575060025f8281526020019081526020015f206001015f9054906101000a900473ffffffffffffffffffffffffffffffffffffffff1673ffffffffffffffffffffffffffffffffffffffff163373ffffffffffffffffffffffffffffffffffffffff16145b610a4d576040517f08c379a0000000000000000000000000000000000000000000000000000000008152600401610a4490611ae8565b60405180910390fd5b60015f815480929190610a5f9061160d565b9190505550604051806080016040528060015481526020018381526020018281526020014281525060035f60015481526020019081526020015f205f820151815f01556020820151816001015560408201518160020155606082015181600301559050507fb7a51c32366dd2043f2c70ee95005491fa5671660fcb4ca5fa6087ad727dfc0b6001548383604051610af893929190611b06565b60405180910390a15050565b60605f805467ffffffffffffffff811115610b2257610b21611553565b5b604051908082528060200260200182016040528015610b5b57816020015b610b48610dff565b815260200190600190039081610b405790505b5090505f600190505b5f548111610dd35760025f8281526020019081526020015f206040518060a00160405290815f8201548152602001600182015f9054906101000a900473ffffffffffffffffffffffffffffffffffffffff1673ffffffffffffffffffffffffffffffffffffffff1673ffffffffffffffffffffffffffffffffffffffff168152602001600282018054610bf690611523565b80601f0160208091040260200160405190810160405280929190818152602001828054610c2290611523565b8015610c6d5780601f10610c4457610100808354040283529160200191610c6d565b820191905f5260205f20905b815481529060010190602001808311610c5057829003601f168201915b50505050508152602001600382018054610c8690611523565b80601f0160208091040260200160405190810160405280929190818152602001828054610cb290611523565b8015610cfd5780601f10610cd457610100808354040283529160200191610cfd565b820191905f5260205f20905b815481529060010190602001808311610ce057829003601f168201915b50505050508152602001600482018054610d1690611523565b80601f0160208091040260200160405190810160405280929190818152602001828054610d4290611523565b8015610d8d5780601f10610d6457610100808354040283529160200191610d8d565b820191905f5260205f20905b815481529060010190602001808311610d7057829003601f168201915b50505050508152505082600183610da491906115ad565b81518110610db557610db46115e0565b5b60200260200101819052508080610dcb9061160d565b915050610b64565b508091505090565b60405180608001604052805f81526020015f81526020015f81526020015f81525090565b6040518060a001604052805f81526020015f73ffffffffffffffffffffffffffffffffffffffff1681526020016060815260200160608152602001606081525090565b5f819050919050565b610e5481610e42565b82525050565b5f602082019050610e6d5f830184610e4b565b92915050565b5f80fd5b5f80fd5b610e8481610e42565b8114610e8e575f80fd5b50565b5f81359050610e9f81610e7b565b92915050565b5f60208284031215610eba57610eb9610e73565b5b5f610ec784828501610e91565b91505092915050565b5f73ffffffffffffffffffffffffffffffffffffffff82169050919050565b5f610ef982610ed0565b9050919050565b610f0981610eef565b82525050565b5f81519050919050565b5f82825260208201905092915050565b5f5b83811015610f46578082015181840152602081019050610f2b565b5f8484015250505050565b5f601f19601f8301169050919050565b5f610f6b82610f0f565b610f758185610f19565b9350610f85818560208601610f29565b610f8e81610f51565b840191505092915050565b5f60a082019050610fac5f830188610e4b565b610fb96020830187610f00565b8181036040830152610fcb8186610f61565b90508181036060830152610fdf8185610f61565b90508181036080830152610ff38184610f61565b90509695505050505050565b5f6080820190506110125f830187610e4b565b61101f6020830186610e4b565b61102c6040830185610e4b565b6110396060830184610e4b565b95945050505050565b61104b81610eef565b8114611055575f80fd5b50565b5f8135905061106681611042565b92915050565b5f6020828403121561108157611080610e73565b5b5f61108e84828501611058565b91505092915050565b5f8115159050919050565b6110ab81611097565b82525050565b5f6020820190506110c45f8301846110a2565b92915050565b5f81519050919050565b5f82825260208201905092915050565b5f819050602082019050919050565b6110fc81610e42565b82525050565b608082015f8201516111165f8501826110f3565b50602082015161112960208501826110f3565b50604082015161113c60408501826110f3565b50606082015161114f60608501826110f3565b50505050565b5f6111608383611102565b60808301905092915050565b5f602082019050919050565b5f611182826110ca565b61118c81856110d4565b9350611197836110e4565b805f5b838110156111c75781516111ae8882611155565b97506111b98361116c565b92505060018101905061119a565b5085935050505092915050565b5f6020820190508181035f8301526111ec8184611178565b905092915050565b5f80fd5b5f80fd5b5f80fd5b5f8083601f840112611215576112146111f4565b5b8235905067ffffffffffffffff811115611232576112316111f8565b5b60208301915083600182028301111561124e5761124d6111fc565b5b9250929050565b5f805f805f806060878903121561126f5761126e610e73565b5b5f87013567ffffffffffffffff81111561128c5761128b610e77565b5b61129889828a01611200565b9650965050602087013567ffffffffffffffff8111156112bb576112ba610e77565b5b6112c789828a01611200565b9450945050604087013567ffffffffffffffff8111156112ea576112e9610e77565b5b6112f689828a01611200565b92509250509295509295509295565b5f806040838503121561131b5761131a610e73565b5b5f61132885828601610e91565b925050602061133985828601610e91565b9150509250929050565b5f81519050919050565b5f82825260208201905092915050565b5f819050602082019050919050565b61137581610eef565b82525050565b5f82825260208201905092915050565b5f61139582610f0f565b61139f818561137b565b93506113af818560208601610f29565b6113b881610f51565b840191505092915050565b5f60a083015f8301516113d85f8601826110f3565b5060208301516113eb602086018261136c565b5060408301518482036040860152611403828261138b565b9150506060830151848203606086015261141d828261138b565b91505060808301518482036080860152611437828261138b565b9150508091505092915050565b5f61144f83836113c3565b905092915050565b5f602082019050919050565b5f61146d82611343565b611477818561134d565b9350836020820285016114898561135d565b805f5b858110156114c457848403895281516114a58582611444565b94506114b083611457565b925060208a0199505060018101905061148c565b50829750879550505050505092915050565b5f6020820190508181035f8301526114ee8184611463565b905092915050565b7f4e487b71000000000000000000000000000000000000000000000000000000005f52602260045260245ffd5b5f600282049050600182168061153a57607f821691505b60208210810361154d5761154c6114f6565b5b50919050565b7f4e487b71000000000000000000000000000000000000000000000000000000005f52604160045260245ffd5b7f4e487b71000000000000000000000000000000000000000000000000000000005f52601160045260245ffd5b5f6115b782610e42565b91506115c283610e42565b92508282039050818111156115da576115d9611580565b5b92915050565b7f4e487b71000000000000000000000000000000000000000000000000000000005f52603260045260245ffd5b5f61161782610e42565b91507fffffffffffffffffffffffffffffffffffffffffffffffffffffffffffffffff820361164957611648611580565b5b600182019050919050565b7f5573657220616c726561647920726567697374657265640000000000000000005f82015250565b5f611688601783610f19565b915061169382611654565b602082019050919050565b5f6020820190508181035f8301526116b58161167c565b9050919050565b5f819050815f5260205f209050919050565b5f6020601f8301049050919050565b5f82821b905092915050565b5f600883026117187fffffffffffffffffffffffffffffffffffffffffffffffffffffffffffffffff826116dd565b61172286836116dd565b95508019841693508086168417925050509392505050565b5f819050919050565b5f61175d61175861175384610e42565b61173a565b610e42565b9050919050565b5f819050919050565b61177683611743565b61178a61178282611764565b8484546116e9565b825550505050565b5f90565b61179e611792565b6117a981848461176d565b505050565b5b818110156117cc576117c15f82611796565b6001810190506117af565b5050565b601f821115611811576117e2816116bc565b6117eb846116ce565b810160208510156117fa578190505b61180e611806856116ce565b8301826117ae565b50505b505050565b5f82821c905092915050565b5f6118315f1984600802611816565b1980831691505092915050565b5f6118498383611822565b9150826002028217905092915050565b61186282610f0f565b67ffffffffffffffff81111561187b5761187a611553565b5b6118858254611523565b6118908282856117d0565b5f60209050601f8311600181146118c1575f84156118af578287015190505b6118b9858261183e565b865550611920565b601f1984166118cf866116bc565b5f5b828110156118f6578489015182556001820191506020850194506020810190506118d1565b86831015611913578489015161190f601f891682611822565b8355505b6001600288020188555050505b505050505050565b828183375f83830152505050565b5f6119418385610f19565b935061194e838584611928565b61195783610f51565b840190509392505050565b5f60a0820190506119755f83018b610e4b565b611982602083018a610f00565b818103604083015261199581888a611936565b905081810360608301526119aa818688611936565b905081810360808301526119bf818486611936565b90509998505050505050505050565b7f43616e6e6f74206d6174636820796f757273656c6600000000000000000000005f82015250565b5f611a02601583610f19565b9150611a0d826119ce565b602082019050919050565b5f6020820190508181035f830152611a2f816119f6565b9050919050565b7f496e76616c6964207573657220494400000000000000000000000000000000005f82015250565b5f611a6a600f83610f19565b9150611a7582611a36565b602082019050919050565b5f6020820190508181035f830152611a9781611a5e565b9050919050565b7f4f6e6c79207061727469636970616e74732063616e206d6174636800000000005f82015250565b5f611ad2601b83610f19565b9150611add82611a9e565b602082019050919050565b5f6020820190508181035f830152611aff81611ac6565b9050919050565b5f606082019050611b195f830186610e4b565b611b266020830185610e4b565b611b336040830184610e4b565b94935050505056fea2646970667358221220c46df8f8794244e83ad86cfdb2c6014f006df6d4da25a4c0b9e57f010e4a453764736f6c63430008140033","linkReferences":{}},"methodIdentifiers":{"getAllMatches()":"c17c5a45","getAllUsers()":"e2842d79","matchCount()":"79c4264b","matchUsers(uint256,uint256)":"ddf7adac","matches(uint256)":"4768d4ef","registerUser(string,string,string)":"d637dcfa","registered(address)":"b2dd5c07","userCount()":"07973ccf","users(uint256)":"365b98b2"},"id":19}