{"abi":[{"type":"function","name":"MAX_USERS","inputs":[],"outputs":[{"name":"","type":"uint256","internalType":"uint256"}],"stateMutability":"view"},{"type":"function","name":"findMatches","inputs":[{"name":"_userId","type":"uint256","internalType":"uint256"}],"outputs":[],"stateMutability":"nonpayable"},{"type":"function","name":"getAllMatches","inputs":[],"outputs":[{"name":"","type":"tuple[]","internalType":"struct SkillSwap.MatchRecord[]","components":[{"name":"a","type":"uint256","internalType":"uint256"},{"name":"b","type":"uint256","internalType":"uint256"},{"name":"timestamp","type":"uint256","internalType":"uint256"}]}],"stateMutability":"view"},{"type":"function","name":"getAllUsers","inputs":[],"outputs":[{"name":"","type":"tuple[]","internalType":"struct SkillSwap.User[]","components":[{"name":"id","type":"uint256","internalType":"uint256"},{"name":"wallet","type":"address","internalType":"address"},{"name":"name","type":"string","internalType":"string"},{"name":"skillToTeach","type":"bytes32","internalType":"bytes32"},{"name":"skillToLearn","type":"bytes32","internalType":"bytes32"},{"name":"bio","type":"string","internalType":"string"},{"name":"socials","type":"tuple","internalType":"struct SkillSwap.Socials","components":[{"name":"twitter","type":"string","internalType":"string"},{"name":"farcaster","type":"string","internalType":"string"},{"name":"email","type":"string","internalType":"string"}]},{"name":"registeredAt","type":"uint256","internalType":"uint256"},{"name":"updatedAt","type":"uint256","internalType":"uint256"}]}],"stateMutability":"view"},{"type":"function","name":"getUserById","inputs":[{"name":"_userId","type":"uint256","internalType":"uint256"}],"outputs":[{"name":"","type":"tuple","internalType":"struct SkillSwap.User","components":[{"name":"id","type":"uint256","internalType":"uint256"},{"name":"wallet","type":"address","internalType":"address"},{"name":"name","type":"string","internalType":"string"},{"name":"skillToTeach","type":"bytes32","internalType":"bytes32"},{"name":"skillToLearn","type":"bytes32","internalType":"bytes32"},{"name":"bio","type":"string","internalType":"string"},{"name":"socials","type":"tuple","internalType":"struct SkillSwap.Socials","components":[{"name":"twitter","type":"string","internalType":"string"},{"name":"farcaster","type":"string","internalType":"string"},{"name":"email","type":"string","internalType":"string"}]},{"name":"registeredAt","type":"uint256","internalType":"uint256"},{"name":"updatedAt","type":"uint256","internalType":"uint256"}]}],"stateMutability":"view"},{"type":"function","name":"getUserByWallet","inputs":[{"name":"_wallet","type":"address","internalType":"address"}],"outputs":[{"name":"","type":"tuple","internalType":"struct SkillSwap.User","components":[{"name":"id","type":"uint256","internalType":"uint256"},{"name":"wallet","type":"address","internalType":"address"},{"name":"name","type":"string","internalType":"string"},{"name":"skillToTeach","type":"bytes32","internalType":"bytes32"},{"name":"skillToLearn","type":"bytes32","internalType":"bytes32"},{"name":"bio","type":"string","internalType":"string"},{"name":"socials","type":"tuple","internalType":"struct SkillSwap.Socials","components":[{"name":"twitter","type":"string","internalType":"string"},{"name":"farcaster","type":"string","internalType":"string"},{"name":"email","type":"string","internalType":"string"}]},{"name":"registeredAt","type":"uint256","internalType":"uint256"},{"name":"updatedAt","type":"uint256","internalType":"uint256"}]}],"stateMutability":"view"},{"type":"function","name":"getUserMatches","inputs":[{"name":"_userId","type":"uint256","internalType":"uint256"}],"outputs":[{"name":"","type":"uint256[]","internalType":"uint256[]"}],"stateMutability":"view"},{"type":"function","name":"hasRegistered","inputs":[{"name":"","type":"address","internalType":"address"}],"outputs":[{"name":"","type":"bool","internalType":"bool"}],"stateMutability":"view"},{"type":"function","name":"myUserId","inputs":[],"outputs":[{"name":"","type":"uint256","internalType":"uint256"}],"stateMutability":"view"},{"type":"function","name":"register","inputs":[{"name":"_name","type":"string","internalType":"string"},{"name":"_skillToTeach","type":"string","internalType":"string"},{"name":"_skillToLearn","type":"string","internalType":"string"},{"name":"_twitter","type":"string","internalType":"string"},{"name":"_farcaster","type":"string","internalType":"string"},{"name":"_email","type":"string","internalType":"string"}],"outputs":[],"stateMutability":"nonpayable"},{"type":"function","name":"skillToHash","inputs":[{"name":"_skill","type":"string","internalType":"string"}],"outputs":[{"name":"","type":"bytes32","internalType":"bytes32"}],"stateMutability":"pure"},{"type":"function","name":"updateProfile","inputs":[{"name":"_userId","type":"uint256","internalType":"uint256"},{"name":"_skillToTeach","type":"string","internalType":"string"},{"name":"_skillToLearn","type":"string","internalType":"string"},{"name":"_bio","type":"string","internalType":"string"},{"name":"_twitter","type":"string","internalType":"string"},{"name":"_farcaster","type":"string","internalType":"string"},{"name":"_email","type":"string","internalType":"string"}],"outputs":[],"stateMutability":"nonpayable"},{"type":"function","name":"userCount","inputs":[],"outputs":[{"name":"","type":"uint256","internalType":"uint256"}],"stateMutability":"view"},{"type":"event","name":"UserRegistered","inputs":[{"name":"userId","type":"uint256","indexed":true,"internalType":"uint256"},{"name":"wallet","type":"address","indexed":true,"internalType":"address"},{"name":"name","type":"string","indexed":false,"internalType":"string"},{"name":"skillToTeach","type":"bytes32","indexed":false,"internalType":"bytes32"},{"name":"skillToLearn","type":"bytes32","indexed":false,"internalType":"bytes32"},{"name":"timestamp","type":"uint256","indexed":false,"internalType":"uint256"}],"anonymous":false},{"type":"event","name":"UserUpdated","inputs":[{"name":"userId","type":"uint256","indexed":true,"internalType":"uint256"},{"name":"wallet","type":"address","indexed":true,"internalType":"address"},{"name":"newSkillToTeach","type":"bytes32","indexed":false,"internalType":"bytes32"},{"name":"newSkillToLearn","type":"bytes32","indexed":false,"internalType":"bytes32"},{"name":"timestamp","type":"uint256","indexed":false,"internalType":"uint256"}],"anonymous":false},{"type":"event","name":"UsersMatched","inputs":[{"name":"userId","type":"uint256","indexed":true,"internalType":"uint256"},{"name":"matchedIds","type":"uint256[]","indexed":false,"internalType":"uint256[]"},{"name":"wallet","type":"address","indexed":true,"internalType":"address"},{"name":"timestamp","type":"uint256","indexed":false,"internalType":"uint256"}],"anonymous":false}],"bytecode":{"object":"0x6080806040523461001657611d99908161001b8239f35b5f80fdfe6080806040526004361015610012575f80fd5b5f3560e01c90816307973ccf1461169f57508063104ace0214610d935780633b0328be14610cd85780636368daca14610c555780636b0c2a6f14610c2e5780636ed6da9e14610b27578063a0d0352614610ae6578063ab41993214610a4d578063c17c5a4514610966578063e2842d79146107a6578063fa6ac1311461078a578063fb0a5014146102355763fc891b3a146100ab575f80fd5b34610231576020806003193601126102315760043580151580610226575b6100d2906119d2565b805f52600180835260405f2060039182820154926004830154905f549061271080831161021e575b5061010482611a26565b955f93855b848111156101a157505050505061011f81611a26565b935f5b82811061017d575050500154604080518181526001600160a01b03909216947f785862796fe248aa784d78412d457a2100acdea84fb9d7f4ed44401343d9e14093839261017291908401906117e8565b9042908301520390a3005b8061018b61019c9284611a66565b516101968289611a66565b52611a58565b610122565b8981146101c757805f52868b5260405f20838386830154149182610210575b50506101d5575b6101d090611a58565b610109565b946101e0868b611ab5565b856101eb828b611a66565b528681018091116101fc57946101c7565b634e487b7160e01b5f52601160045260245ffd5b60040154149050835f6101c0565b91505f6100fa565b505f548111156100c9565b5f80fd5b346102315760e0366003190112610231576024356001600160401b038111610231576102659036906004016116b8565b906044356001600160401b038111610231576102859036906004016116b8565b906064356001600160401b038111610231576102a59036906004016116b8565b6084356001600160401b038111610231576102c49036906004016116b8565b60a4929192356001600160401b038111610231576102e69036906004016116b8565b93909260c4356001600160401b038111610231576103089036906004016116b8565b96909760043515158061077d575b61031f906119d2565b6004355f52600160205260018060a01b03600160405f200154163303610747576004355f52600160205260405f209960038b01549b60048c01549d8061072d575b50508061070e575b50506103768b8b14156118b8565b8960038a01558a60048a01556001600160401b0382116105925781906103ac826103a360058d0154611917565b60058d0161194f565b5f90601f83116001146106a1575f92610696575b50508160011b915f199060031b1c19161760058801555b6001600160401b038211610592578190610401826103f860068b0154611917565b60068b0161194f565b5f90601f8311600114610629575f9261061e575b50508160011b915f199060031b1c19161760068601555b6001600160401b0382116105925781906104568261044d6007890154611917565b6007890161194f565b5f90601f83116001146105b1575f926105a6575b50508160011b915f199060031b1c19161760078401555b60088301916001600160401b0382116105925781906104aa826104a48654611917565b8661194f565b5f90601f831160011461052b575f92610520575b50508160011b915f199060031b1c19161790555b42600a8201556001808060a01b03910154169160405191825260208201524260408201527f9ba28b7a2e465ddfadf23fdaf86e8727499b1344180eca8e88803253fff018ee606060043592a3005b0135905086806104be565b909150601f19831691845f5260205f20925f5b81811061057a5750908460019594939210610561575b505050811b0190556104d2565b01355f19600384901b60f8161c19169055868080610554565b9193602060018192878701358155019501920161053e565b634e487b7160e01b5f52604160045260245ffd5b01359050878061046a565b909250600786015f5260205f20905f935b601f1984168510610606576001945083601f198116106105ed575b505050811b016007840155610481565b01355f19600384901b60f8161c191690558780806105dd565b818101358355602094850194600190930192016105c2565b013590508980610415565b909250600688015f5260205f20905f935b601f198416851061067e576001945083601f19811610610665575b505050811b01600686015561042c565b01355f19600384901b60f8161c19169055898080610655565b8181013583556020948501946001909301920161063a565b013590508b806103c0565b90925060058a015f5260205f20905f935b601f19841685106106f6576001945083601f198116106106dd575b505050811b0160058801556103d7565b01355f19600384901b60f8161c191690558b80806106cd565b818101358355602094850194600190930192016106b2565b610725929c5090610720913691611873565b6119a2565b998b80610368565b61073f929d5090610720913691611873565b9a8d80610360565b60405162461bcd60e51b815260206004820152600e60248201526d2737ba103ab9b2b91037bbb732b960911b6044820152606490fd5b505f546004351115610316565b34610231575f3660031901126102315760206040516127108152f35b34610231575f366003190112610231575f5461271080821161095e575b506107cd81611a0f565b906107db6040519283611852565b808252601f196107ea82611a0f565b015f5b8181106109475750505f5b81811061085d5760408051602080825285518183018190525f93600582901b8401810192808901929185015b8287106108315785850386f35b90919293828061084d600193603f198a8203018652885161172b565b9601920196019592919092610824565b600190818101918282116101fc57610942925f52600a602082815260405f20906040519361088a85611836565b825485528201546001600160a01b0316818501526108aa60028301611cc4565b604085015260038201546060850152600482015460808501526108cf60058301611cc4565b60a0850152604051906108e18261181b565b6108ed60068401611cc4565b82526108fb60078401611cc4565b9082015261090b60088301611cc4565b604082015260c0840152600981015460e084015201546101008201526109318286611a66565b5261093c8185611a66565b50611a58565b6107f8565b602090610952611c65565b828287010152016107ed565b9050816107c3565b34610231575f3660031901126102315760065461098281611a0f565b61098f6040519182611852565b818152602090818101928360065f527ff652222313e28459528d920b65115c16c04f3efc82aaedc97be59f3f377c0d3f5f915b838310610a17576040805187815286518189018190528992820190895f5b8281106109ed5784840385f35b855180518552808301518584015260409081015190850152948101946060909301926001016109e0565b600386600192604051610a298161181b565b855481528486015483820152600286015460408201528152019201920191906109c2565b34610231576020806003193601126102315760043580151580610adb575b610a74906119d2565b5f526004815260405f20906040518083838295549384815201905f52835f20925f5b85828210610ac557505050610aad92500383611852565b610ac16040519282849384528301906117e8565b0390f35b8554845260019586019588955093019201610a96565b505f54811115610a6b565b34610231576020366003190112610231576004356001600160a01b03811690819003610231575f526003602052602060ff60405f2054166040519015158152f35b346102315760208060031936011261023157600435610b44611c65565b5080151580610c23575b610b57906119d2565b5f526001815260405f2090600a60405192610b7184611836565b8054845260018101546001600160a01b031683850152610b9360028201611cc4565b60408501526003810154606085015260048101546080850152610bb860058201611cc4565b60a0850152604051610bc98161181b565b610bd560068301611cc4565b8152610be360078301611cc4565b84820152610bf360088301611cc4565b604082015260c0850152600981015460e08501520154610100830152610ac160405192828493845283019061172b565b505f54811115610b4e565b34610231575f36600319011261023157335f526002602052602060405f2054604051908152f35b34610231576020366003190112610231576004356001600160401b03811161023157610c859036906004016116b8565b908115610ca557610720610c9d916020933691611873565b604051908152f35b60405162461bcd60e51b815260206004820152600b60248201526a115b5c1d1e481cdada5b1b60aa1b6044820152606490fd5b3461023157602080600319360112610231576001600160a01b03906004358281169081900361023157610d09611c65565b505f526002815260405f20548015610d4e575f5260018152600a60405f2060405193610d3485611836565b8154855260018201541683850152610b9360028201611cc4565b60405162461bcd60e51b815260048101839052601960248201527f55736572206e6f7420666f756e6420666f722077616c6c6574000000000000006044820152606490fd5b346102315760c0366003190112610231576004356001600160401b03811161023157610dc39036906004016116b8565b6024356001600160401b03811161023157610de29036906004016116b8565b9190926044356001600160401b03811161023157610e049036906004016116b8565b6064949194356001600160401b03811161023157610e269036906004016116b8565b9290966001600160401b036084351161023157610e48366084356004016116b8565b909260a4356001600160401b03811161023157610e699036906004016116b8565b949092335f52600360205260ff60405f2054166116655789156116305782156115f35786156115b6575f549a6127108c101561157d57610ee19c610eca610720610ee893610ec2610720610f009b610ef19a3691611873565b9b3691611873565b99610ed78b8b14156118b8565b6040519e8f61181b565b3691611873565b8c523691611873565b9260208a019384523691611873565b8060408901528751511591821592611571575b508115611566575b50156114ef576001850185116101fc57600185015f5560405195610f3e87611836565b600186018752336020880152610f55368686611873565b60408801528160608801528260808801526040518060208101106001600160401b0360208301111761059257602081016040525f815260a088015260c08701524260e087015242610100870152600185015f52600160205260405f20865181556001810160018060a01b036020890151166bffffffffffffffffffffffff60a01b82541617905560408701518051906001600160401b03821161059257819061100e826110056002870154611917565b6002870161194f565b602090601f8311600114611481575f92611476575b50508160011b915f199060031b1c19161760028201555b606087015160038201556080870151600482015560a08701518051906001600160401b038211610592578190611080826110776005870154611917565b6005870161194f565b602090601f8311600114611408575f926113fd575b50508160011b915f199060031b1c19161760058201555b60c087015180518051906001600160401b0382116105925781906110e0826110d76006880154611917565b6006880161194f565b602090601f831160011461138f575f92611384575b50508160011b915f199060031b1c19161760068301555b60208101518051906001600160401b0382116105925761113c826111336007870154611917565b6007870161194f565b602090601f83116001146113155760409392915f918361130a575b50508160011b915f199060031b1c19161760078401555b01519687516001600160401b0381116105925761119b816111926008860154611917565b6008860161194f565b6020601f821160011461127657918161010092600a947f8cc7c995d62e0dd9140cbb5c09637dbdae7f3ba97a22a1369a127fd250ed6ce39a9b9c5f9261126b575b50508160011b915f199060031b1c19161760088501555b60e081015160098501550151910155335f5260026020526001860160405f2055600360205260405f20600160ff1982541617905584604051936080855281608086015260a08501375f60a086850101526020830152604082015242606082015260a081600133960194601f80199101168101030190a3005b015190508c806111dc565b600884015f5260205f20995f5b601f19841681106112f25750827f8cc7c995d62e0dd9140cbb5c09637dbdae7f3ba97a22a1369a127fd250ed6ce3999a9b600a959360019361010096601f198116106112da575b505050811b0160088501556111f3565b01515f1960f88460031b161c191690558c80806112ca565b828201518c556001909b019a60209283019201611283565b015190508b80611157565b90600785015f5260205f20915f5b601f198516811061136c575091839160019360409695601f19811610611354575b505050811b01600784015561116e565b01515f1960f88460031b161c191690558b8080611344565b91926020600181928685015181550194019201611323565b015190508a806110f5565b9250600685015f5260205f20905f935b601f19841685106113e2576001945083601f198116106113ca575b505050811b01600683015561110c565b01515f1960f88460031b161c191690558a80806113ba565b8181015183556020948501946001909301929091019061139f565b015190508980611095565b9250600584015f5260205f20905f935b601f198416851061145b576001945083601f19811610611443575b505050811b0160058201556110ac565b01515f1960f88460031b161c19169055898080611433565b81810151835560209485019460019093019290910190611418565b015190508980611023565b9250600284015f5260205f20905f935b601f19841685106114d4576001945083601f198116106114bc575b505050811b01600282015561103a565b01515f1960f88460031b161c191690558980806114ac565b81810151835560209485019460019093019290910190611491565b60405162461bcd60e51b815260206004820152604360248201527f4174206c65617374206f6e6520736f6369616c20636f6e74616374207265717560448201527f697265642028747769747465722c206661726361737465722c206f7220656d61606482015262696c2960e81b608482015260a490fd5b905051151587610f1b565b51511515915088610f13565b60405162461bcd60e51b815260206004820152601160248201527013585e081d5cd95c9cc81c995858da1959607a1b6044820152606490fd5b60405162461bcd60e51b81526020600482015260156024820152741cdada5b1b151bd319585c9b881c995c5d5a5c9959605a1b6044820152606490fd5b60405162461bcd60e51b81526020600482015260156024820152741cdada5b1b151bd5195858da081c995c5d5a5c9959605a1b6044820152606490fd5b60405162461bcd60e51b815260206004820152600d60248201526c13985b59481c995c5d5a5c9959609a1b6044820152606490fd5b60405162461bcd60e51b8152602060048201526012602482015271105b1c9958591e481c9959da5cdd195c995960721b6044820152606490fd5b34610231575f366003190112610231576020905f548152f35b9181601f84011215610231578235916001600160401b038311610231576020838186019501011161023157565b5f5b8381106116f65750505f910152565b81810151838201526020016116e7565b9060209161171f815180928185528580860191016116e5565b601f01601f1916010190565b908151815260018060a01b0360208301511660208201526117d06117876117616040850151610120806040870152850190611706565b606085015160608501526080850151608085015260a085015184820360a0860152611706565b60c08401519083810360c085015260406117bf6117ad8451606085526060850190611706565b60208501518482036020860152611706565b920151906040818403910152611706565b9160e081015160e08301526101008091015191015290565b9081518082526020808093019301915f5b828110611807575050505090565b8351855293810193928101926001016117f9565b606081019081106001600160401b0382111761059257604052565b61012081019081106001600160401b0382111761059257604052565b90601f801991011681019081106001600160401b0382111761059257604052565b9291926001600160401b038211610592576040519161189c601f8201601f191660200184611852565b829481845281830111610231578281602093845f960137010152565b156118bf57565b60405162461bcd60e51b815260206004820152602a60248201527f736b696c6c546f5465616368206d757374206469666665722066726f6d20736b60448201526934b6362a37a632b0b93760b11b6064820152608490fd5b90600182811c92168015611945575b602083101461193157565b634e487b7160e01b5f52602260045260245ffd5b91607f1691611926565b90601f811161195d57505050565b5f91825260208220906020601f850160051c83019410611998575b601f0160051c01915b82811061198d57505050565b818155600101611981565b9092508290611978565b6040516119cc602082816119bf81830196878151938492016116e5565b8101038084520182611852565b51902090565b156119d957565b60405162461bcd60e51b815260206004820152600e60248201526d125b9d985b1a59081d5cd95c925960921b6044820152606490fd5b6001600160401b0381116105925760051b60200190565b90611a3082611a0f565b611a3d6040519182611852565b8281528092611a4e601f1991611a0f565b0190602036910137565b5f1981146101fc5760010190565b8051821015611a7a5760209160051b010190565b634e487b7160e01b5f52603260045260245ffd5b805490600160401b8210156105925760018201808255821015611a7a575f5260205f200155565b919091828114611c1c57611ac98382611c21565b925f938452600560205260408420805460ff8116611c145760ff191660011790558082108015611c0d5782905b15611c0757815b60405191611b0a8361181b565b8252602082019081526040820190428252600654600160401b811015611bf3576001810180600655811015611bdf576040949288949260037ff652222313e28459528d920b65115c16c04f3efc82aaedc97be59f3f377c0d41936006611bdd9b9c52029351847ff652222313e28459528d920b65115c16c04f3efc82aaedc97be59f3f377c0d3f0155517ff652222313e28459528d920b65115c16c04f3efc82aaedc97be59f3f377c0d40840155519101558382526004602052611bd081848420611a8e565b8152600460205220611a8e565b565b634e487b7160e01b88526032600452602488fd5b634e487b7160e01b88526041600452602488fd5b82611afd565b8190611af6565b505050509050565b509050565b9080821015611c475760405190602082019283526040820152604081526119cc8161181b565b9060405190602082019283526040820152604081526119cc8161181b565b60405190611c7282611836565b816101005f91828152826020820152606080604083015283818301528360808301528060a083015260405190611ca78261181b565b808252806020830152604082015260c08201528260e08201520152565b9060405191825f825492611cd784611917565b9081845260019485811690815f14611d405750600114611d00575b5050611bdd92500383611852565b909391505f52602090815f20935f915b818310611d28575050611bdd93508201015f80611cf2565b85548884018501529485019487945091830191611d10565b915050611bdd94506020925060ff191682840152151560051b8201015f80611cf256fea2646970667358221220b1652836e48aa6c1c07e3af26cb2a390a15e647dcfa5d65b68c39c485ea5f15364736f6c63430008140033","linkReferences":{}},"methodIdentifiers":{"MAX_USERS()":"fa6ac131","findMatches(uint256)":"fc891b3a","getAllMatches()":"c17c5a45","getAllUsers()":"e2842d79","getUserById(uint256)":"6ed6da9e","getUserByWallet(address)":"3b0328be","getUserMatches(uint256)":"ab419932","hasRegistered(address)":"a0d03526","myUserId()":"6b0c2a6f","register(string,string,string,string,string,string)":"104ace02","skillToHash(string)":"6368daca","updateProfile(uint256,string,string,string,string,string,string)":"fb0a5014","userCount()":"07973ccf"},"id":0}